{
  "contractName": "Token",
  "abi": [
    {
      "inputs": [],
      "payable": false,
      "stateMutability": "nonpayable",
      "type": "constructor"
    },
    {
      "anonymous": false,
      "inputs": [
        {
          "indexed": false,
          "internalType": "address",
          "name": "buyer",
          "type": "address"
        },
        {
          "indexed": false,
          "internalType": "uint256",
          "name": "amount",
          "type": "uint256"
        }
      ],
      "name": "BuyToken",
      "type": "event"
    },
    {
      "anonymous": false,
      "inputs": [
        {
          "indexed": false,
          "internalType": "address",
          "name": "payer",
          "type": "address"
        },
        {
          "indexed": false,
          "internalType": "address",
          "name": "payee",
          "type": "address"
        },
        {
          "indexed": false,
          "internalType": "uint256",
          "name": "amount",
          "type": "uint256"
        }
      ],
      "name": "TransferToken",
      "type": "event"
    },
    {
      "constant": false,
      "inputs": [
        {
          "internalType": "bytes32",
          "name": "_channelId",
          "type": "bytes32"
        },
        {
          "internalType": "address",
          "name": "_address1",
          "type": "address"
        },
        {
          "internalType": "address",
          "name": "_address2",
          "type": "address"
        },
        {
          "internalType": "bytes",
          "name": "signature1",
          "type": "bytes"
        },
        {
          "internalType": "bytes",
          "name": "signature2",
          "type": "bytes"
        }
      ],
      "name": "createChannel",
      "outputs": [
        {
          "internalType": "bool",
          "name": "",
          "type": "bool"
        }
      ],
      "payable": false,
      "stateMutability": "nonpayable",
      "type": "function"
    },
    {
      "constant": false,
      "inputs": [
        {
          "internalType": "bytes32",
          "name": "_channelId",
          "type": "bytes32"
        },
        {
          "internalType": "bytes",
          "name": "signature1",
          "type": "bytes"
        },
        {
          "internalType": "bytes",
          "name": "signature2",
          "type": "bytes"
        },
        {
          "internalType": "uint256",
          "name": "balance1",
          "type": "uint256"
        },
        {
          "internalType": "uint256",
          "name": "balance2",
          "type": "uint256"
        }
      ],
      "name": "closeChannel",
      "outputs": [],
      "payable": false,
      "stateMutability": "nonpayable",
      "type": "function"
    },
    {
      "constant": false,
      "inputs": [
        {
          "internalType": "bytes32",
          "name": "_channelId",
          "type": "bytes32"
        },
        {
          "internalType": "bytes",
          "name": "signature1",
          "type": "bytes"
        },
        {
          "internalType": "bytes",
          "name": "signature2",
          "type": "bytes"
        },
        {
          "internalType": "uint256",
          "name": "balance1",
          "type": "uint256"
        },
        {
          "internalType": "uint256",
          "name": "balance2",
          "type": "uint256"
        }
      ],
      "name": "updateChannelAndBalances",
      "outputs": [],
      "payable": false,
      "stateMutability": "nonpayable",
      "type": "function"
    },
    {
      "constant": false,
      "inputs": [
        {
          "internalType": "uint256",
          "name": "amount",
          "type": "uint256"
        }
      ],
      "name": "buyToken",
      "outputs": [],
      "payable": true,
      "stateMutability": "payable",
      "type": "function"
    },
    {
      "constant": false,
      "inputs": [
        {
          "internalType": "address",
          "name": "payee",
          "type": "address"
        },
        {
          "internalType": "uint256",
          "name": "amount",
          "type": "uint256"
        }
      ],
      "name": "transfer",
      "outputs": [],
      "payable": false,
      "stateMutability": "nonpayable",
      "type": "function"
    },
    {
      "constant": true,
      "inputs": [
        {
          "internalType": "bytes32",
          "name": "hash",
          "type": "bytes32"
        },
        {
          "internalType": "bytes",
          "name": "sig",
          "type": "bytes"
        },
        {
          "internalType": "address",
          "name": "signer",
          "type": "address"
        }
      ],
      "name": "sigVerify",
      "outputs": [
        {
          "internalType": "bool",
          "name": "",
          "type": "bool"
        }
      ],
      "payable": false,
      "stateMutability": "view",
      "type": "function"
    },
    {
      "constant": true,
      "inputs": [
        {
          "internalType": "address",
          "name": "addr",
          "type": "address"
        }
      ],
      "name": "getBalance",
      "outputs": [
        {
          "internalType": "uint256",
          "name": "",
          "type": "uint256"
        }
      ],
      "payable": false,
      "stateMutability": "view",
      "type": "function"
    },
    {
      "constant": true,
      "inputs": [
        {
          "internalType": "bytes32",
          "name": "channelId",
          "type": "bytes32"
        }
      ],
      "name": "getChannel",
      "outputs": [
        {
          "internalType": "address",
          "name": "",
          "type": "address"
        },
        {
          "internalType": "address",
          "name": "",
          "type": "address"
        }
      ],
      "payable": false,
      "stateMutability": "view",
      "type": "function"
    }
  ],
  "bytecode": "0x608060405234801561001057600080fd5b5032600260006101000a81548173ffffffffffffffffffffffffffffffffffffffff021916908373ffffffffffffffffffffffffffffffffffffffff160217905550620f424060016000600260009054906101000a900473ffffffffffffffffffffffffffffffffffffffff1673ffffffffffffffffffffffffffffffffffffffff1673ffffffffffffffffffffffffffffffffffffffff16815260200190815260200160002081905550611b65806100ca6000396000f3fe60806040526004361061007b5760003560e01c8063a5061dc01161004e578063a5061dc0146103e3578063a9059cbb146105a4578063ad919233146105ff578063f8b2cb4f1461077c5761007b565b80632d296bf114610080578063396e848a146100ae57806355e719ef146101b8578063831c2b8214610335575b600080fd5b6100ac6004803603602081101561009657600080fd5b81019080803590602001909291905050506107e1565b005b3480156100ba57600080fd5b5061019e600480360360608110156100d157600080fd5b8101908080359060200190929190803590602001906401000000008111156100f857600080fd5b82018360208201111561010a57600080fd5b8035906020019184600183028401116401000000008311171561012c57600080fd5b91908080601f016020809104026020016040519081016040528093929190818152602001838380828437600081840152601f19601f820116905080830192505050505050509192919290803573ffffffffffffffffffffffffffffffffffffffff1690602001909291905050506109cc565b604051808215151515815260200191505060405180910390f35b3480156101c457600080fd5b50610333600480360360a08110156101db57600080fd5b81019080803590602001909291908035906020019064010000000081111561020257600080fd5b82018360208201111561021457600080fd5b8035906020019184600183028401116401000000008311171561023657600080fd5b91908080601f016020809104026020016040519081016040528093929190818152602001838380828437600081840152601f19601f8201169050808301925050505050505091929192908035906020019064010000000081111561029957600080fd5b8201836020820111156102ab57600080fd5b803590602001918460018302840111640100000000831117156102cd57600080fd5b91908080601f016020809104026020016040519081016040528093929190818152602001838380828437600081840152601f19601f8201169050808301925050505050505091929192908035906020019092919080359060200190929190505050610b18565b005b34801561034157600080fd5b5061036e6004803603602081101561035857600080fd5b8101908080359060200190929190505050610f6d565b604051808373ffffffffffffffffffffffffffffffffffffffff1673ffffffffffffffffffffffffffffffffffffffff1681526020018273ffffffffffffffffffffffffffffffffffffffff1673ffffffffffffffffffffffffffffffffffffffff1681526020019250505060405180910390f35b3480156103ef57600080fd5b5061058a600480360360a081101561040657600080fd5b8101908080359060200190929190803573ffffffffffffffffffffffffffffffffffffffff169060200190929190803573ffffffffffffffffffffffffffffffffffffffff1690602001909291908035906020019064010000000081111561046d57600080fd5b82018360208201111561047f57600080fd5b803590602001918460018302840111640100000000831117156104a157600080fd5b91908080601f016020809104026020016040519081016040528093929190818152602001838380828437600081840152601f19601f8201169050808301925050505050505091929192908035906020019064010000000081111561050457600080fd5b82018360208201111561051657600080fd5b8035906020019184600183028401116401000000008311171561053857600080fd5b91908080601f016020809104026020016040519081016040528093929190818152602001838380828437600081840152601f19601f820116905080830192505050505050509192919290505050610fe5565b604051808215151515815260200191505060405180910390f35b3480156105b057600080fd5b506105fd600480360360408110156105c757600080fd5b81019080803573ffffffffffffffffffffffffffffffffffffffff169060200190929190803590602001909291905050506113ec565b005b34801561060b57600080fd5b5061077a600480360360a081101561062257600080fd5b81019080803590602001909291908035906020019064010000000081111561064957600080fd5b82018360208201111561065b57600080fd5b8035906020019184600183028401116401000000008311171561067d57600080fd5b91908080601f016020809104026020016040519081016040528093929190818152602001838380828437600081840152601f19601f820116905080830192505050505050509192919290803590602001906401000000008111156106e057600080fd5b8201836020820111156106f257600080fd5b8035906020019184600183028401116401000000008311171561071457600080fd5b91908080601f016020809104026020016040519081016040528093929190818152602001838380828437600081840152601f19601f82011690508083019250505050505050919291929080359060200190929190803590602001909291905050506115dd565b005b34801561078857600080fd5b506107cb6004803603602081101561079f57600080fd5b81019080803573ffffffffffffffffffffffffffffffffffffffff169060200190929190505050611a55565b6040518082815260200191505060405180910390f35b803414610839576040517f08c379a0000000000000000000000000000000000000000000000000000000008152600401808060200182810382526022815260200180611b0f6022913960400191505060405180910390fd5b80600160003373ffffffffffffffffffffffffffffffffffffffff1673ffffffffffffffffffffffffffffffffffffffff168152602001908152602001600020600082825401925050819055508060016000600260009054906101000a900473ffffffffffffffffffffffffffffffffffffffff1673ffffffffffffffffffffffffffffffffffffffff1673ffffffffffffffffffffffffffffffffffffffff16815260200190815260200160002060008282540392505081905550600260009054906101000a900473ffffffffffffffffffffffffffffffffffffffff1673ffffffffffffffffffffffffffffffffffffffff166108fc349081150290604051600060405180830381858888f1935050505015801561095d573d6000803e3d6000fd5b507fdd06b66c3ba8126086cd863137d6f3b86ce5bcf4309cac390cc265e39194d0b23382604051808373ffffffffffffffffffffffffffffffffffffffff1673ffffffffffffffffffffffffffffffffffffffff1681526020018281526020019250505060405180910390a150565b6000806000806041865114610a49576040517f08c379a00000000000000000000000000000000000000000000000000000000081526004018080602001828103825260188152602001807f496e76616c6964207369676e6174757265206c656e677468000000000000000081525060200191505060405180910390fd5b602086015192506040860151915060418601519050601b8160ff161015610a7157601b810190505b600060018883868660405160008152602001604052604051808581526020018460ff1660ff1681526020018381526020018281526020019450505050506020604051602081039080840390855afa158015610ad0573d6000803e3d6000fd5b5050506020604051035190508573ffffffffffffffffffffffffffffffffffffffff168173ffffffffffffffffffffffffffffffffffffffff16149450505050509392505050565b610b20611a9e565b6000808781526020019081526020016000206040518060c0016040529081600082015481526020016001820160009054906101000a900473ffffffffffffffffffffffffffffffffffffffff1673ffffffffffffffffffffffffffffffffffffffff1673ffffffffffffffffffffffffffffffffffffffff1681526020016002820160009054906101000a900473ffffffffffffffffffffffffffffffffffffffff1673ffffffffffffffffffffffffffffffffffffffff1673ffffffffffffffffffffffffffffffffffffffff16815260200160038201548152602001600482015481526020016005820160009054906101000a900460ff166001811115610c2557fe5b6001811115610c3057fe5b8152505090506000816020015190506000826040015190506000888383604051602001808481526020018373ffffffffffffffffffffffffffffffffffffffff1673ffffffffffffffffffffffffffffffffffffffff1660601b81526014018273ffffffffffffffffffffffffffffffffffffffff1673ffffffffffffffffffffffffffffffffffffffff1660601b81526014019350505050604051602081830303815290604052805190602001209050610cec8189856109cc565b610d5e576040517f08c379a000000000000000000000000000000000000000000000000000000000815260040180806020018281038252601e8152602001807f496e76616c6964207369676e617475726520666f72206164647265737331000081525060200191505060405180910390fd5b610d698188846109cc565b610ddb576040517f08c379a000000000000000000000000000000000000000000000000000000000815260040180806020018281038252601e8152602001807f496e76616c6964207369676e617475726520666f72206164647265737332000081525060200191505060405180910390fd5b85600160008573ffffffffffffffffffffffffffffffffffffffff1673ffffffffffffffffffffffffffffffffffffffff1681526020019081526020016000208190555084600160008473ffffffffffffffffffffffffffffffffffffffff1673ffffffffffffffffffffffffffffffffffffffff168152602001908152602001600020819055508584606001818152505084846080018181525050836000808b81526020019081526020016000206000820151816000015560208201518160010160006101000a81548173ffffffffffffffffffffffffffffffffffffffff021916908373ffffffffffffffffffffffffffffffffffffffff16021790555060408201518160020160006101000a81548173ffffffffffffffffffffffffffffffffffffffff021916908373ffffffffffffffffffffffffffffffffffffffff160217905550606082015181600301556080820151816004015560a08201518160050160006101000a81548160ff02191690836001811115610f5a57fe5b0217905550905050505050505050505050565b60008060008084815260200190815260200160002060010160009054906101000a900473ffffffffffffffffffffffffffffffffffffffff1660008085815260200190815260200160002060020160009054906101000a900473ffffffffffffffffffffffffffffffffffffffff1691509150915091565b600085600080888152602001908152602001600020600001541415611072576040517f08c379a000000000000000000000000000000000000000000000000000000000815260040180806020018281038252600e8152602001807f4368616e6e656c2045786973747300000000000000000000000000000000000081525060200191505060405180910390fd5b6000868686604051602001808481526020018373ffffffffffffffffffffffffffffffffffffffff1673ffffffffffffffffffffffffffffffffffffffff1660601b81526014018273ffffffffffffffffffffffffffffffffffffffff1673ffffffffffffffffffffffffffffffffffffffff1660601b815260140193505050506040516020818303038152906040528051906020012090506111168185886109cc565b611188576040517f08c379a000000000000000000000000000000000000000000000000000000000815260040180806020018281038252601e8152602001807f496e76616c6964207369676e617475726520666f72206164647265737331000081525060200191505060405180910390fd5b6111938184876109cc565b611205576040517f08c379a000000000000000000000000000000000000000000000000000000000815260040180806020018281038252601e8152602001807f496e76616c6964207369676e617475726520666f72206164647265737332000081525060200191505060405180910390fd5b61120d611a9e565b6040518060c001604052808981526020018873ffffffffffffffffffffffffffffffffffffffff1681526020018773ffffffffffffffffffffffffffffffffffffffff168152602001600160008a73ffffffffffffffffffffffffffffffffffffffff1673ffffffffffffffffffffffffffffffffffffffff168152602001908152602001600020548152602001600160008973ffffffffffffffffffffffffffffffffffffffff1673ffffffffffffffffffffffffffffffffffffffff168152602001908152602001600020548152602001600060018111156112ed57fe5b8152509050806000808a81526020019081526020016000206000820151816000015560208201518160010160006101000a81548173ffffffffffffffffffffffffffffffffffffffff021916908373ffffffffffffffffffffffffffffffffffffffff16021790555060408201518160020160006101000a81548173ffffffffffffffffffffffffffffffffffffffff021916908373ffffffffffffffffffffffffffffffffffffffff160217905550606082015181600301556080820151816004015560a08201518160050160006101000a81548160ff021916908360018111156113d557fe5b021790555090505060019250505095945050505050565b80600160003373ffffffffffffffffffffffffffffffffffffffff1673ffffffffffffffffffffffffffffffffffffffff16815260200190815260200160002054116114a0576040517f08c379a00000000000000000000000000000000000000000000000000000000081526004018080602001828103825260148152602001807f496e73756666656369656e742042616c616e636500000000000000000000000081525060200191505060405180910390fd5b80600160003373ffffffffffffffffffffffffffffffffffffffff1673ffffffffffffffffffffffffffffffffffffffff1681526020019081526020016000206000828254039250508190555080600160008473ffffffffffffffffffffffffffffffffffffffff1673ffffffffffffffffffffffffffffffffffffffff168152602001908152602001600020600082825401925050819055507f3844b7075ed6e7d4b61342769cb2b1b325cba410a62932affaa90aee247dadf5338383604051808473ffffffffffffffffffffffffffffffffffffffff1673ffffffffffffffffffffffffffffffffffffffff1681526020018373ffffffffffffffffffffffffffffffffffffffff1673ffffffffffffffffffffffffffffffffffffffff168152602001828152602001935050505060405180910390a15050565b6115e5611a9e565b6000808781526020019081526020016000206040518060c0016040529081600082015481526020016001820160009054906101000a900473ffffffffffffffffffffffffffffffffffffffff1673ffffffffffffffffffffffffffffffffffffffff1673ffffffffffffffffffffffffffffffffffffffff1681526020016002820160009054906101000a900473ffffffffffffffffffffffffffffffffffffffff1673ffffffffffffffffffffffffffffffffffffffff1673ffffffffffffffffffffffffffffffffffffffff16815260200160038201548152602001600482015481526020016005820160009054906101000a900460ff1660018111156116ea57fe5b60018111156116f557fe5b8152505090506000816020015190506000826040015190506000888383604051602001808481526020018373ffffffffffffffffffffffffffffffffffffffff1673ffffffffffffffffffffffffffffffffffffffff1660601b81526014018273ffffffffffffffffffffffffffffffffffffffff1673ffffffffffffffffffffffffffffffffffffffff1660601b815260140193505050506040516020818303038152906040528051906020012090506117b18189856109cc565b611823576040517f08c379a000000000000000000000000000000000000000000000000000000000815260040180806020018281038252601e8152602001807f496e76616c6964207369676e617475726520666f72206164647265737331000081525060200191505060405180910390fd5b61182e8188846109cc565b6118a0576040517f08c379a000000000000000000000000000000000000000000000000000000000815260040180806020018281038252601e8152602001807f496e76616c6964207369676e617475726520666f72206164647265737332000081525060200191505060405180910390fd5b85600160008573ffffffffffffffffffffffffffffffffffffffff1673ffffffffffffffffffffffffffffffffffffffff1681526020019081526020016000208190555084600160008473ffffffffffffffffffffffffffffffffffffffff1673ffffffffffffffffffffffffffffffffffffffff1681526020019081526020016000208190555060018460a00190600181111561193a57fe5b9081600181111561194757fe5b815250508584606001818152505084846080018181525050836000808b81526020019081526020016000206000820151816000015560208201518160010160006101000a81548173ffffffffffffffffffffffffffffffffffffffff021916908373ffffffffffffffffffffffffffffffffffffffff16021790555060408201518160020160006101000a81548173ffffffffffffffffffffffffffffffffffffffff021916908373ffffffffffffffffffffffffffffffffffffffff160217905550606082015181600301556080820151816004015560a08201518160050160006101000a81548160ff02191690836001811115611a4257fe5b0217905550905050505050505050505050565b6000600160008373ffffffffffffffffffffffffffffffffffffffff1673ffffffffffffffffffffffffffffffffffffffff168152602001908152602001600020549050919050565b6040518060c0016040528060008019168152602001600073ffffffffffffffffffffffffffffffffffffffff168152602001600073ffffffffffffffffffffffffffffffffffffffff168152602001600081526020016000815260200160006001811115611b0857fe5b8152509056fe596f752063616e206f6e6c7920627579203120546f6b656e20666f72203120776569a265627a7a7231582049aa9e674aedd9780701d4159015a725c791521cf4d1436f27d100bf6088adfb64736f6c63430005100032",
  "source": "pragma solidity >=0.4.22 <0.8.0;\r\n\r\ncontract Token{\r\n\r\n    enum Status {Active, Inactive}\r\n    mapping (bytes32 => Channel) channels;\r\n    struct Channel{\r\n        bytes32 channelId;\r\n        address address1;\r\n        address address2;\r\n        uint balance1;\r\n        uint balance2;\r\n        Status status;\r\n    }\r\n\r\n    mapping (address=>uint256) balances;\r\n    address payable owner;\r\n    event BuyToken(address buyer, uint amount);\r\n    event TransferToken(address payer, address payee, uint amount);\r\n    //seed to start token 10000\r\n    constructor() public {\r\n        owner=tx.origin;\r\n        balances[owner]=1000000;\r\n    }\r\n\r\n    function createChannel(bytes32 _channelId, address _address1, address _address2, bytes memory signature1, bytes memory signature2) public returns(bool){\r\n        require(channels[_channelId].channelId!=_channelId,\"Channel Exists\");\r\n        bytes32 fingerprint = keccak256(abi.encodePacked(_channelId, _address1, _address2));\r\n        require(sigVerify(fingerprint, signature1, _address1),\"Invalid signature for address1\");\r\n        require(sigVerify(fingerprint, signature2, _address2),\"Invalid signature for address2\");\r\n        Channel memory newChannel = Channel(_channelId, _address1, _address2, balances[_address1], balances[_address2], Status.Active);\r\n        channels[_channelId] = newChannel;\r\n        return true;\r\n    }\r\n    \r\n    function closeChannel(bytes32 _channelId, bytes memory signature1, bytes memory signature2, uint balance1, uint balance2) public{\r\n        Channel memory channel = channels[_channelId];\r\n        address _address1 = channel.address1;\r\n        address _address2 = channel.address2;\r\n        bytes32 fingerprint = keccak256(abi.encodePacked(_channelId, _address1, _address2));\r\n        require(sigVerify(fingerprint, signature1, _address1),\"Invalid signature for address1\");\r\n        require(sigVerify(fingerprint, signature2, _address2),\"Invalid signature for address2\");\r\n        balances[_address1]=balance1;\r\n        balances[_address2]=balance2;\r\n        channel.status = Status.Inactive;\r\n        channel.balance1 = balance1;\r\n        channel.balance2 = balance2;\r\n        channels[_channelId]=channel;\r\n    }\r\n\r\n    function updateChannelAndBalances(bytes32 _channelId, bytes memory signature1, bytes memory signature2, uint balance1, uint balance2) public{\r\n        Channel memory channel = channels[_channelId];\r\n        address _address1 = channel.address1;\r\n        address _address2 = channel.address2;\r\n        bytes32 fingerprint = keccak256(abi.encodePacked(_channelId, _address1, _address2));\r\n        require(sigVerify(fingerprint, signature1, _address1),\"Invalid signature for address1\");\r\n        require(sigVerify(fingerprint, signature2, _address2),\"Invalid signature for address2\");\r\n        balances[_address1]=balance1;\r\n        balances[_address2]=balance2;\r\n        channel.balance1 = balance1;\r\n        channel.balance2 = balance2;\r\n        channels[_channelId]=channel;\r\n    }\r\n    //assume 1 token = 1 wei\r\n    function buyToken(uint amount) public payable{\r\n        require(msg.value==amount, \"You can only buy 1 Token for 1 wei\");\r\n        balances[msg.sender]+=amount;\r\n        balances[owner]-=amount;\r\n        owner.transfer(msg.value);\r\n        emit BuyToken(msg.sender,amount);\r\n    }\r\n\r\n    function transfer(address payee, uint amount) public{\r\n        require(balances[msg.sender]>amount,\"Insuffecient Balance\");\r\n        balances[msg.sender]-=amount;\r\n        balances[payee]+=amount;\r\n        emit TransferToken(msg.sender, payee, amount);\r\n    }\r\n\r\n    function sigVerify(bytes32 hash, bytes memory sig, address signer) public view returns (bool){\r\n        bytes32 r;\r\n        bytes32 s;\r\n        uint8 v;\r\n        \r\n        require(sig.length==65,\"Invalid signature length\");\r\n\r\n        assembly {\r\n            r := mload(add(sig, 32))\r\n            s := mload(add(sig, 64))\r\n            v := mload(add(sig, 65))\r\n        }\r\n        if (v < 27)\r\n          v += 27;\r\n\r\n        address sigAddress = ecrecover(hash, v, r, s);\r\n        return sigAddress == signer;\r\n    }\r\n\r\n    function getBalance(address addr) public view returns(uint) {\r\n\t\treturn balances[addr];\r\n\t}\r\n\r\n    function getChannel(bytes32 channelId) public view returns(address, address){\r\n        return (channels[channelId].address1, channels[channelId].address2);\r\n    }\r\n}",
  "sourcePath": "C:/Users/agboo/ethereum/StateChannelTest/contracts/Token.sol",
  "compiler": {
    "name": "solc",
    "version": "0.5.16+commit.9c3226ce.Emscripten.clang"
  },
  "schemaVersion": "3.3.1",
  "updatedAt": "2020-10-31T17:55:27.799Z",
  "devdoc": {
    "methods": {}
  },
  "userdoc": {
    "methods": {}
  }
}